:10000000A5C0BFC0D6C3BDC0BCC0F6C2BAC0B9C0CF
:10001000B8C0B7C0B6C0B5C0B4C0B2C337C3200003
:10002000A83F81FF8D14AFA1C87C1211127C7F49BB
:100030004949363E414141227F4141221C7F494985
:1000400049417F090909013E4149497A7F08080869
:100050007F00417F41002040413F017F0814224141
:100060007F404040407F020C027F7F0408107F3EAB
:100070004141413E7F090909063E4151215E7F0908
:10008000192946464949493101017F01013F404054
:10009000403F1F2040201F3F4038403F631408145A
:1000A00063070870080761514945431C3E7C3E1CAC
:1000B000205554557838454445383C4140217CFC16
:1000C000022A2A28000000000020545454787F4857
:1000D0004444383844444420384444487F385454D5
:1000E0005418087E09010218A4A4A47C7F08040403
:1000F0007800447D40004080847D007F10284400CB
:1001000000417F40007C041804787C08040478389F
:1001100044444438FC2424241818242418FC7C0863
:100120000404084854545420043F4440203C4040B8
:10013000207C1C2040201C3C4030403C442810289F
:10014000441CA0A0A07C4464544C440011241FBE55
:10015000CFE5D2E0DEBFCDBF10E0A0E6B0E0EAEF31
:10016000FCE002C005900D92A436B107D9F720E05B
:10017000A4E6B0E001C01D92A03CB207E1F728D38D
:10018000BAC53ECF9091BF009923A1F09091BE00D7
:10019000903240F59091BD00E92FF0E0EC59FF4F0F
:1001A000808381E0890F8093BD008093BE0081E051
:1001B00090E008952091BC009091BB002F5F921BAE
:1001C0009F7081F09091BC009F5F9F702091BB0059
:1001D0009217E1F3E92FF0E0EC58FF4F8083909302
:1001E000BC00E5CF90E080E00895CCCF91E0909303
:1001F000BF00880F809364009093BD009093BE0071
:1002000008958CE3F3DF80E890E0EFCF8EB928E229
:100210003CE08BE240E256E09091AC009923E1F0A3
:10022000932F9A95F1F78DB9B29BFECF9091AC00C8
:100230009923A1F0952F9A95F1F78DB9769BECCF84
:100240008091AC00882361F08CE08A95F1F78FB142
:100250009FEF9FB9B89A0895922FE3CF942FEBCFD9
:1002600088E2F3CFFF920F931F93CF93DF93062F74
:10027000142F21E02093BA00FC01208120FD03C04F
:1002800023E02093BA00C29AB29BFECF2091AC002B
:100290002223D1F026E02A95F1F7C0982091AC00F6
:1002A0002223A1F026E02A95F1F7C298C09A779907
:1002B0000FC087E08093BA0010E0812FDF91CF91CB
:1002C0001F910F91FF90089528E2E5CF20E2EBCF38
:1002D000EC01FF24FA948091BA00837019F1C2985E
:1002E00088818FB980EF92DFB8988EEF8FDF80FF23
:1002F0000CC08091BA00182F117080FF02C086E0F8
:10030000D9CF85E08093BA00D8CF8091BA008E7F94
:100310008093BA00015021960111DDCF11110EC05A
:1003200011E0CBCFB89880EF71DF8883013021F4E2
:10033000FFB88EEF6BDFEECF1FB8FBCFC098C29A2D
:10034000B29BFECF8091AC00882379F086E08A953D
:10035000F1F7C09A8091AC00882349F08CE08A952F
:10036000F1F77599DDCF88E0CDCF80E2F0CF88E25C
:10037000F6CF41E06091BE0084E690E073DF10921A
:10038000BD001092BE001092BF00811110C080917C
:10039000BA00853041F0863021F0813031F481E0BF
:1003A000089582E0089583E0089584E0089580E050
:1003B0000895CF93C82F25DF8C2FE4DECF91D9CFBE
:1003C0000F931F93CF93DF93D82FC62F042F122F95
:1003D00018DF81E290E009DF90E080E006DF8D2FFA
:1003E000D1DE2D2F200F3327331FC9010197FDDEEA
:1003F000C0DF07DF82E290E0F8DE90E080E0F5DE2B
:100400008C2FC0DE2C2F210F3327331FC9010197FA
:10041000ECDEDF91CF911F910F91ABCF0F931F9324
:10042000CF93DF93C82F8CE3E1DE80E490E0DDDE44
:100430008C2FCC0F990B65E070E04CD4D0E0C0E07D
:100440008C01075D1F4FF801EC0FFD1F84919ADEB0
:100450002196C530D105B9F790E080E0C6DE8091E5
:10046000B900833118F490E080E0BFDEDF91CF91D6
:100470001F910F917ECF0F931F93CF93DF93382F50
:10048000D091B9008D2F90E069EF7FEFD33110F05C
:100490006AEF7FEF1FD480589F4F97FD0196959587
:1004A00087959091AA00992319F0323009F484506D
:1004B00028E0231B40E8481B632F82DF06E910E099
:1004C000C0E0DC1731F0F80181918F01A7DFCF5F29
:1004D000F8CF1092B900DF91CF911F910F9108953D
:1004E000CF93DF93EC0180E581DE8D2F4BDE8C2FE7
:1004F00049DE3FDF81EA8093640041E062E084E608
:1005000090E0B0DE91E09093BD0081110DC090931A
:10051000BE008091BE00882359F0813009F58FEF2D
:100520009FEFDF91CF91089582E08093BE00F1CFDD
:100530009091AD008091AE00891B8F7081F39091F6
:10054000AD008091AE009817E1F3E091AD00EF5F50
:10055000EF70E093AD00F0E0EC59FF4F8081E1CF08
:100560008091650022E02093BD00DBCFCF92DF9227
:10057000EF92FF920F931F93CF93DF936AE070E0A7
:10058000A9D3EC018C01065F1F4F8CE1F82E9DE191
:10059000E92E2EE1D22E3BE1C32EC017D10718F56C
:1005A000CE010A969DDF8032C1F09091B900E92F0B
:1005B000F0E0EA56FF4F843291F028F4833249F09C
:1005C0008154808307C0853261F08A32C9F7D082B6
:1005D00001C0C0829F5F9093B9002196DECFF08268
:1005E000F9CFE082F7CFDF91CF911F910F91FF906C
:1005F000EF90DF90CF9008951F920F920FB60F9259
:1006000011242F933F938F939F93AF93BF93809128
:10061000B5009091B600A091B700B091B8003091AC
:10062000B40026E0230F2D3768F129E8230F039645
:10063000A11DB11D2093B4008093B5009093B60026
:10064000A093B700B093B8008091B0009091B10032
:10065000A091B200B091B3000196A11DB11D80938D
:10066000B0009093B100A093B200B093B300BF91DB
:10067000AF919F918F913F912F910F900FBE0F904F
:100680001F9018950296A11DB11DD4CF1F920F92F5
:100690000FB60F9211242F938F939F93EF93FF9395
:1006A0008091AF00823009F45EC078F4882349F16C
:1006B000813009F43EC0FF91EF919F918F912F916E
:1006C0000F900FBE0F901F901895843009F451C001
:1006D00048F1853081F784E08093AF009FB180912D
:1006E000AE008F5F8F702091AD00281709F446C0CF
:1006F0008093AE00E091AE00F0E0EC59FF4F9083A4
:100700000BC08FB1882319F08FB1869571F4789B57
:1007100007C081E08093AF001FB8B89A8EE721C070
:1007200084E0F8CF8FB1882321F0B89888EA8DB99A
:1007300017C08091BB009091BC009817B1F38091D5
:10074000BB008F5F8F708093BB00E091BB00F0E037
:10075000EC58FF4F80818FB982E08093AF00B89A48
:1007600080E78EB9A8CF83E08093AF00B8981FB818
:10077000D5CF85E08093AF00B898F2CFB898CECFB0
:100780001F920F920FB60F9211248F931092AF0009
:10079000B898B29B04C0B09BFCCF88EA01C088EF38
:1007A0008DB980EF8EB98F910F900FBE0F901F9073
:1007B00018951F920F920FB60F9211248F9381E01C
:1007C0008093AB008F910F900FBE0F901F901895E4
:1007D00083E08ABD83BF789489B7826089BF80E453
:1007E0008CBD9FEF9DBD87EC80BF86E886B980E811
:1007F00088B916B8BC9A8FE388BBF8948BB780622F
:100800008BBFA99A789481E08093AC001092BD00D0
:100810001092BE001092BF00C09AC29ABA9AB89ABB
:100820009FB98AE28DB980EF8EB91092AA0010921A
:10083000950010929400C0919400D0919500C5301D
:10084000D10550F51091AA00E12EF12CC70148DE28
:10085000082FC701019644DE282F802F90E06FEF0C
:1008600070E038D2820F911D909393008093920094
:10087000009711F41092AB00FE01EE0FFF1FE85736
:10088000FF4F918380831E5F1093AA002196D0931F
:100890009500C0939400CFCF80E886BD84E086BDEC
:1008A0008091AB008823E1F32FB7F8948091B500D5
:1008B0009091B600A091B700B091B8002FBF0097FB
:1008C00029F0BC01CD0188279927A4D1C9E2D0E045
:1008D00010E843E0842E912CA12CB12CC49A8FE017
:1008E00097E20197F1F700C000008BDC3EE1E32EB8
:1008F00030E0F32EF701849145DCFFEFEF1AFF0A99
:10090000CE15DF05B9F735DD8091AB00882309F4FA
:10091000D9C016BD16BC2FB7F8948091B500909140
:10092000B600A091B700B091B8002FBF80938400AB
:1009300090938500A0938600B093870080E039DD16
:1009400080E137DD80E435DD28E040E860E080E0EC
:1009500037DD01E48CE34ADC80E490E046DC20E112
:10096000F22E90E080E041DCFA94F110FACF01DD44
:10097000015081F7C0908800D0908900F12CE12CC3
:10098000C114D104E104F10429F0F6D0A7019601C5
:1009900063D16B01D0929300C0929200C601E6DD54
:1009A00082E069DDE9D0A501940156D16093AA00E7
:1009B000662319F080E3860F31DDC0908A00D09065
:1009C0008B00F12CE12C4090880050908900712C14
:1009D000612C4C145D046E047F047CF4C418D508AB
:1009E000E608F70831F0C8D0A701960135D16B01B0
:1009F0007C014C0C5D1C6E1C7F1C5092930040923D
:100A00009200C201B3DDE091AA00F0E0DF01AA0F7D
:100A1000BB1FA457BF4FCD90DC90F12CE12CEE0F03
:100A2000FF1FE657FF4F40805180712C612C4C1402
:100A30005D046E047F047CF4C418D508E608F7084A
:100A400031F09AD0A701960107D16B017C014C0CC3
:100A50005D1C6E1C7F1C5092930040929200C2015C
:100A600085DD84E008DD2FEF84E39CE021508040A9
:100A70009040E1F700C000001092AB0016BD84E08A
:100A800086BD8091AB0081113FCF2FB7F894809144
:100A9000B5009091B600A091B700B091B8002FBFFB
:100AA000409184005091850060918600709187008C
:100AB000841B950BA60BB70B823E9440A105B10594
:100AC00000F322CF8EEA75DCC49885B7877E8061FB
:100AD00085BF85B7806285BF889585B78F7D85BFC7
:100AE000FDCE8F929F92AF92BF92CF92DF92EF9204
:100AF000FF92CF93DF93EC01688179818A819B819A
:100B0000611571058105910521F464E279ED8BE5AC
:100B100097E02DE133EF41E050E09ED049015A01CA
:100B200027EA31E440E050E07ED06B017C012CEEFE
:100B300034EF4FEF5FEFC501B40175D0C60ED71E7D
:100B4000E81EF91EF7FE06C081E0C81AD108E108C8
:100B500080E8F80AC882D982EA82FB82C701B6011E
:100B60009F77DF91CF91FF90EF90DF90CF90BF9074
:100B7000AF909F908F9008958F929F92AF92BF9267
:100B8000CF92DF92EF92FF926091600070916100CE
:100B90008091620090916300611571058105910556
:100BA00021F464E279ED8BE597E02DE133EF41E04C
:100BB00050E052D049015A0127EA31E440E050E0C8
:100BC00032D06B017C012CEE34EF4FEF5FEFC501AB
:100BD000B40129D0C60ED71EE81EF91EF7FE06C0C6
:100BE00081E0C81AD108E10880E8F80AC0926000E4
:100BF000D0926100E0926200F0926300C701B601FA
:100C00009F77FF90EF90DF90CF90BF90AF909F9035
:100C10008F900895609360007093610080936200EC
:100C2000909363000895EE27FF27AA27BB2708C0EB
:100C3000A20FB31FE41FF51F220F331F441F551FC0
:100C4000969587957795679598F37040A9F70097E3
:100C500099F7BD01CF010895052E97FB16F4009476
:100C60000FD057FD05D014D007FC02D046F408C0C1
:100C700050954095309521953F4F4F4F5F4F0895C8
:100C800090958095709561957F4F8F4F9F4F0895F8
:100C9000A1E21A2EAA1BBB1BFD010DC0AA1FBB1F80
:100CA000EE1FFF1FA217B307E407F50720F0A21BF2
:100CB000B30BE40BF50B661F771F881F991F1A945F
:100CC00069F760957095809590959B01AC01BD0189
:100CD000CF0108950024552704C0080E591F880F1E
:100CE000991F009729F076956795B8F37105B9F7C4
:0A0CF000802D952F0895F894FFCF92
:040CFA0001000000F5
:00000001FF
