:10000000A5C0BFC0E0C3BDC0BCC0F6C2BAC0B9C0C5
:10001000B8C0B7C0B6C0B5C0CCC3B2C337C32000E8
:10002000A83F81FF8D14AFA1C87C1211127C7F49BB
:100030004949363E414141227F4141221C7F494985
:1000400049417F090909013E4149497A7F08080869
:100050007F00417F41002040413F017F0814224141
:100060007F404040407F020C027F7F0408107F3EAB
:100070004141413E7F090909063E4151215E7F0908
:10008000192946464949493101017F01013F404054
:10009000403F1F2040201F3F4038403F631408145A
:1000A00063070870080761514945431C3E7C3E1CAC
:1000B000205554557838454445383C4140217CFC16
:1000C000022A2A28000000000020545454787F4857
:1000D0004444383844444420384444487F385454D5
:1000E0005418087E09010218A4A4A47C7F08040403
:1000F0007800447D40004080847D007F10284400CB
:1001000000417F40007C041804787C08040478389F
:1001100044444438FC2424241818242418FC7C0863
:100120000404084854545420043F4440203C4040B8
:10013000207C1C2040201C3C4030403C442810289F
:10014000441CA0A0A07C4464544C440011241FBE55
:10015000CFE5D2E0DEBFCDBF10E0A0E6B0E0EEEC30
:10016000FCE002C005900D92A436B107D9F720E05B
:10017000A4E6B0E001C01D92AB3BB207E1F732D379
:10018000A4C53ECF9091BA009923A1F09091B900F7
:10019000903240F59091B800E92FF0E0EC59FF4F14
:1001A000808381E0890F8093B8008093B90081E05B
:1001B00090E008952091B7009091B6002F5F921BB8
:1001C0009F7081F09091B7009F5F9F702091B60063
:1001D0009217E1F3E92FF0E0EC58FF4F8083909302
:1001E000B700E5CF90E080E00895CCCF91E0909308
:1001F000BA00880F809364009093B8009093B90080
:1002000008958CE3F3DF80E890E0EFCF8EB928E229
:100210003CE08BE240E256E09091A7009923E1F0A8
:10022000932F9A95F1F78DB9B29BFECF9091A700CD
:100230009923A1F0952F9A95F1F78DB9769BECCF84
:100240008091A700882361F08CE08A95F1F78FB147
:100250009FEF9FB9B89A0895922FE3CF942FEBCFD9
:1002600088E2F3CFFF920F931F93CF93DF93062F74
:10027000142F21E02093B500FC01208120FD03C054
:1002800023E02093B500C29AB29BFECF2091A70035
:100290002223D1F026E02A95F1F7C0982091A700FB
:1002A0002223A1F026E02A95F1F7C298C09A779907
:1002B0000FC087E08093B50010E0812FDF91CF91D0
:1002C0001F910F91FF90089528E2E5CF20E2EBCF38
:1002D000EC01FF24FA948091B500837019F1C29863
:1002E00088818FB980EF92DFB8988EEF8FDF80FF23
:1002F0000CC08091B500182F117080FF02C086E0FD
:10030000D9CF85E08093B500D8CF8091B5008E7F9E
:100310008093B500015021960111DDCF11110EC05F
:1003200011E0CBCFB89880EF71DF8883013021F4E2
:10033000FFB88EEF6BDFEECF1FB8FBCFC098C29A2D
:10034000B29BFECF8091A700882379F086E08A9542
:10035000F1F7C09A8091A700882349F08CE08A9534
:10036000F1F77599DDCF88E0CDCF80E2F0CF88E25C
:10037000F6CF41E06091B90084E690E073DF10921F
:10038000B8001092B9001092BA00811110C080918B
:10039000B500853041F0863021F0813031F481E0C4
:1003A000089582E0089583E0089584E0089580E050
:1003B0000895CF93C82F25DF8C2FE4DECF91D9CFBE
:1003C0000F931F93CF93DF93D82FC62F042F122F95
:1003D00018DF81E290E009DF90E080E006DF8D2FFA
:1003E000D1DE2D2F200F3327331FC9010197FDDEEA
:1003F000C0DF07DF82E290E0F8DE90E080E0F5DE2B
:100400008C2FC0DE2C2F210F3327331FC9010197FA
:10041000ECDEDF91CF911F910F91ABCF0F931F9324
:10042000CF93DF93C82F8CE3E1DE80E490E0DDDE44
:100430008C2FCC0F990B65E070E036D4D0E0C0E093
:100440008C01075D1F4FF801EC0FFD1F84919ADEB0
:100450002196C530D105B9F790E080E0C6DE8091E5
:10046000B400833118F490E080E0BFDEDF91CF91DB
:100470001F910F917ECF0F931F93CF93DF93382F50
:10048000D091B4008D2F90E069EF7FEFD33110F061
:100490006AEF7FEF09D480589F4F97FD019695959D
:1004A00087959091A500992319F0323009F4845072
:1004B00028E0231B40E8481B632F82DF01E910E09E
:1004C000C0E0DC1731F0F80181918F01A7DFCF5F29
:1004D000F8CF1092B400DF91CF911F910F91089542
:1004E000CF93DF93EC0180E581DE8D2F4BDE8C2FE7
:1004F00049DE3FDF81EA8093640041E062E084E608
:1005000090E0B0DE91E09093B80081110DC090931F
:10051000B9008091B900882359F0813009F58FEF37
:100520009FEFDF91CF91089582E08093B900F1CFE2
:100530009091A8008091A900891B8F7081F3909100
:10054000A8008091A9009817E1F3E091A800EF5F5F
:10055000EF70E093A800F0E0EC59FF4F8081E1CF0D
:100560008091650022E02093B800DBCFCF92DF922C
:10057000EF92FF920F931F93CF93DF936AE070E0A7
:1005800093D3EC018C01065F1F4F8CE1F82E9DE1A7
:10059000E92E2EE1D22E3BE1C32EC017D10718F56C
:1005A000CE010A969DDF8032C1F09091B400E92F10
:1005B000F0E0EF56FF4F843291F028F4833249F097
:1005C0008154808307C0853261F08A32C9F7D082B6
:1005D00001C0C0829F5F9093B4002196DECFF0826D
:1005E000F9CFE082F7CFDF91CF911F910F91FF906C
:1005F000EF90DF90CF9008951F920F920FB60F9259
:1006000011242F933F938F939F93AF93BF93809128
:10061000B0009091B100A091B200B091B3003091C0
:10062000AF0026E0230F2D3768F129E8230F03964A
:10063000A11DB11D2093AF008093B0009093B10035
:10064000A093B200B093B3008091AB009091AC0046
:10065000A091AD00B091AE000196A11DB11D809397
:10066000AB009093AC00A093AD00B093AE00BF91EF
:10067000AF919F918F913F912F910F900FBE0F904F
:100680001F9018950296A11DB11DD4CF1F920F92F5
:100690000FB60F9211242F938F939F93EF93FF9395
:1006A0008091AA00823009F45EC078F4882349F171
:1006B000813009F43EC0FF91EF919F918F912F916E
:1006C0000F900FBE0F901F901895843009F451C001
:1006D00048F1853081F784E08093AA009FB1809132
:1006E000A9008F5F8F702091A800281709F446C0D9
:1006F0008093A900E091A900F0E0EC59FF4F9083AE
:100700000BC08FB1882319F08FB1869571F4789B57
:1007100007C081E08093AA001FB8B89A8EE721C075
:1007200084E0F8CF8FB1882321F0B89888EA8DB99A
:1007300017C08091B6009091B7009817B1F38091DF
:10074000B6008F5F8F708093B600E091B600F0E046
:10075000EC58FF4F80818FB982E08093AA00B89A4D
:1007600080E78EB9A8CF83E08093AA00B8981FB81D
:10077000D5CF85E08093AA00B898F2CFB898CECFB5
:100780001F920F920FB60F9211248F931092AA000E
:10079000B898B29B04C0B09BFCCF88EA01C088EF38
:1007A0008DB980EF8EB98F910F900FBE0F901F9073
:1007B00018951F920F920FB60F9211240F900FBE33
:1007C0000F901F9018951F920F920FB60F92112441
:1007D0008F9381E08093A6008F910F900FBE0F90B2
:1007E0001F90189583E08ABD83BF789489B7826093
:1007F00089BF80E48CBD9FEF9DBD87EC80BF86E8FC
:1008000086B916B8BC9A8FE388BBF8948BB7806220
:100810008BBFA99A84B7877F84BF81B5886181BD6A
:1008200087E281BD789481E08093A7001092B800A0
:100830001092B9001092BA00C09AC29ABA9AB89AA5
:100840009FB98AE28DB980EF8EB91092A5001092FF
:100850009000C0919000C53048F5D091A5000D2FB3
:1008600010E0C8013DDEF82EC801019639DE282FC0
:100870008F2D90E06FEF70E017D2820F911D909353
:100880008F0080938E00009711F41092A600EC2F39
:10089000F0E0EE0FFF1FEC57FF4F91838083DE5F88
:1008A000D093A500CF5FC0939000D3CFC49885B7F5
:1008B000877E806185BF85B7806285BF889585B753
:1008C0008F7D85BF8FE097E20197F1F700C00000B0
:1008D000B19BFECF2FB7F8948091B0009091B100FA
:1008E000A091B200B091B3002FBF009729F0BC01D6
:1008F000CD018827992778D1C9E2D0E043E0842E42
:10090000912CA12CB12CC49AEFE0F7E23197F1F7CA
:1009100000C0000076DC0EE110E0F801849132DCCA
:100920000F5F1F4FC017D107C1F723DD8091A600CD
:10093000882309F4B1C080E03CDD80E13ADD80E449
:1009400038DD28E040E860E080E03ADD11E48CE347
:100950004DDC80E490E049DC00E190E080E045DCA3
:100960000150D9F706DD115091F7C0908400D09066
:100970008500F12CE12CC114D104E104F10429F02B
:10098000E5D0A701960152D16B01D0928F00C092A1
:100990008E00C601EBDD82E06EDDD8D0A5019401AA
:1009A00045D16093A500662319F080E3860F36DDFC
:1009B000C0908600D0908700F12CE12C40908400FC
:1009C00050908500712C612C4C145D046E047F04E2
:1009D0007CF4C418D508E608F70831F0B7D0A701B1
:1009E000960124D16B017C014C0C5D1C6E1C7F1C9C
:1009F00050928F0040928E00C201B8DD8091A50018
:100A000090E0FC01EE0FFF1FE857FF4FC080D18040
:100A1000F12CE12C880F991FFC01EA57FF4F408011
:100A20005180712C612C4C145D046E047F047CF4A5
:100A3000C418D508E608F70831F088D0A701960158
:100A4000F5D06B017C014C0C5D1C6E1C7F1C509220
:100A50008F0040928E00C20189DD84E00CDDFFEF43
:100A600024E38CE0F15020408040E1F700C000001A
:100A70001092A60081B5806481BD85B7877E8061B4
:100A800085BF85B7806285BF889585B78F7D85BF17
:100A900081B58F7B81BD4ACF8EEA8BDCC49885B748
:100AA000877E806185BF85B7806285BF889585B761
:100AB0008F7D85BF28CF8F929F92AF92BF92CF92AA
:100AC000DF92EF92FF92CF93DF93EC0168817981FF
:100AD0008A819B81611571058105910521F464E28C
:100AE00079ED8BE597E02DE133EF41E050E09ED0CA
:100AF00049015A0127EA31E440E050E07ED06B0121
:100B00007C012CEE34EF4FEF5FEFC501B40175D0DF
:100B1000C60ED71EE81EF91EF7FE06C081E0C81AF1
:100B2000D108E10880E8F80AC882D982EA82FB820B
:100B3000C701B6019F77DF91CF91FF90EF90DF90D3
:100B4000CF90BF90AF909F908F9008958F929F927B
:100B5000AF92BF92CF92DF92EF92FF9260916000CE
:100B60007091610080916200909163006115710540
:100B70008105910521F464E279ED8BE597E02DE1A3
:100B800033EF41E050E052D049015A0127EA31E405
:100B900040E050E032D06B017C012CEE34EF4FEF9F
:100BA0005FEFC501B40129D0C60ED71EE81EF91E9D
:100BB000F7FE06C081E0C81AD108E10880E8F80A0B
:100BC000C0926000D0926100E0926200F0926300F7
:100BD000C701B6019F77FF90EF90DF90CF90BF9055
:100BE000AF909F908F900895609360007093610024
:100BF00080936200909363000895EE27FF27AA2751
:100C0000BB2708C0A20FB31FE41FF51F220F331F1D
:100C1000441F551F969587957795679598F3704073
:100C2000A9F7009799F7BD01CF010895052E97FB0D
:100C300016F400940FD057FD05D014D007FC02D055
:100C400046F408C050954095309521953F4F4F4F41
:100C50005F4F089590958095709561957F4F8F4F68
:100C60009F4F0895A1E21A2EAA1BBB1BFD010DC0C8
:100C7000AA1FBB1FEE1FFF1FA217B307E407F5074C
:100C800020F0A21BB30BE40BF50B661F771F881F28
:100C9000991F1A9469F760957095809590959B01BE
:100CA000AC01BD01CF0108950024552704C0080EF2
:100CB000591F880F991F009729F076956795B8F30B
:0E0CC0007105B9F7802D952F0895F894FFCF98
:040CCE000100000021
:00000001FF
